{"abi":[{"type":"constructor","inputs":[{"name":"_moltRegistry","type":"address","internalType":"address"}],"stateMutability":"nonpayable"},{"type":"function","name":"CONSENSUS_THRESHOLD","inputs":[],"outputs":[{"name":"","type":"uint8","internalType":"uint8"}],"stateMutability":"view"},{"type":"function","name":"admin","inputs":[],"outputs":[{"name":"","type":"address","internalType":"address"}],"stateMutability":"view"},{"type":"function","name":"advanceMoltPhase","inputs":[],"outputs":[],"stateMutability":"nonpayable"},{"type":"function","name":"batchCastVotes","inputs":[{"name":"_proposalIds","type":"uint256[]","internalType":"uint256[]"},{"name":"_voteTypes","type":"uint8[]","internalType":"enum PincerGov.VoteType[]"},{"name":"_reasonings","type":"string[]","internalType":"string[]"}],"outputs":[],"stateMutability":"nonpayable"},{"type":"function","name":"castVote","inputs":[{"name":"_proposalId","type":"uint256","internalType":"uint256"},{"name":"_voteType","type":"uint8","internalType":"enum PincerGov.VoteType"},{"name":"_reasoning","type":"string","internalType":"string"}],"outputs":[],"stateMutability":"nonpayable"},{"type":"function","name":"createProposal","inputs":[{"name":"_title","type":"string","internalType":"string"},{"name":"_description","type":"string","internalType":"string"},{"name":"_category","type":"uint8","internalType":"uint8"},{"name":"_votingDuration","type":"uint256","internalType":"uint256"}],"outputs":[{"name":"","type":"uint256","internalType":"uint256"}],"stateMutability":"nonpayable"},{"type":"function","name":"currentPhase","inputs":[],"outputs":[{"name":"","type":"uint8","internalType":"uint8"}],"stateMutability":"view"},{"type":"function","name":"executeProposal","inputs":[{"name":"_proposalId","type":"uint256","internalType":"uint256"}],"outputs":[],"stateMutability":"nonpayable"},{"type":"function","name":"finalizeProposal","inputs":[{"name":"_proposalId","type":"uint256","internalType":"uint256"}],"outputs":[],"stateMutability":"nonpayable"},{"type":"function","name":"getApprovalRate","inputs":[{"name":"_proposalId","type":"uint256","internalType":"uint256"}],"outputs":[{"name":"","type":"uint256","internalType":"uint256"}],"stateMutability":"view"},{"type":"function","name":"getCurrentPhase","inputs":[],"outputs":[{"name":"","type":"uint8","internalType":"uint8"}],"stateMutability":"view"},{"type":"function","name":"getProposal","inputs":[{"name":"_proposalId","type":"uint256","internalType":"uint256"}],"outputs":[{"name":"","type":"tuple","internalType":"struct PincerGov.Proposal","components":[{"name":"id","type":"uint256","internalType":"uint256"},{"name":"title","type":"string","internalType":"string"},{"name":"description","type":"string","internalType":"string"},{"name":"category","type":"uint8","internalType":"uint8"},{"name":"proposer","type":"address","internalType":"address"},{"name":"createdAt","type":"uint256","internalType":"uint256"},{"name":"votingEndsAt","type":"uint256","internalType":"uint256"},{"name":"status","type":"uint8","internalType":"enum PincerGov.ProposalStatus"},{"name":"votesFor","type":"uint256","internalType":"uint256"},{"name":"votesAgainst","type":"uint256","internalType":"uint256"},{"name":"votesAbstain","type":"uint256","internalType":"uint256"}]}],"stateMutability":"view"},{"type":"function","name":"hasVoted","inputs":[{"name":"","type":"uint256","internalType":"uint256"},{"name":"","type":"address","internalType":"address"}],"outputs":[{"name":"","type":"bool","internalType":"bool"}],"stateMutability":"view"},{"type":"function","name":"moltRegistry","inputs":[],"outputs":[{"name":"","type":"address","internalType":"address"}],"stateMutability":"view"},{"type":"function","name":"proposalCount","inputs":[],"outputs":[{"name":"","type":"uint256","internalType":"uint256"}],"stateMutability":"view"},{"type":"function","name":"proposals","inputs":[{"name":"","type":"uint256","internalType":"uint256"}],"outputs":[{"name":"id","type":"uint256","internalType":"uint256"},{"name":"title","type":"string","internalType":"string"},{"name":"description","type":"string","internalType":"string"},{"name":"category","type":"uint8","internalType":"uint8"},{"name":"proposer","type":"address","internalType":"address"},{"name":"createdAt","type":"uint256","internalType":"uint256"},{"name":"votingEndsAt","type":"uint256","internalType":"uint256"},{"name":"status","type":"uint8","internalType":"enum PincerGov.ProposalStatus"},{"name":"votesFor","type":"uint256","internalType":"uint256"},{"name":"votesAgainst","type":"uint256","internalType":"uint256"},{"name":"votesAbstain","type":"uint256","internalType":"uint256"}],"stateMutability":"view"},{"type":"function","name":"resetMoltPhase","inputs":[],"outputs":[],"stateMutability":"nonpayable"},{"type":"function","name":"setMoltRegistry","inputs":[{"name":"_registry","type":"address","internalType":"address"}],"outputs":[],"stateMutability":"nonpayable"},{"type":"function","name":"votes","inputs":[{"name":"","type":"uint256","internalType":"uint256"},{"name":"","type":"address","internalType":"address"}],"outputs":[{"name":"voteType","type":"uint8","internalType":"enum PincerGov.VoteType"},{"name":"timestamp","type":"uint256","internalType":"uint256"},{"name":"reasoning","type":"string","internalType":"string"}],"stateMutability":"view"},{"type":"event","name":"ConsensusReached","inputs":[{"name":"proposalId","type":"uint256","indexed":true,"internalType":"uint256"},{"name":"passed","type":"bool","indexed":false,"internalType":"bool"},{"name":"approvalRate","type":"uint256","indexed":false,"internalType":"uint256"}],"anonymous":false},{"type":"event","name":"MoltPhaseAdvanced","inputs":[{"name":"fromPhase","type":"uint8","indexed":false,"internalType":"uint8"},{"name":"toPhase","type":"uint8","indexed":false,"internalType":"uint8"},{"name":"timestamp","type":"uint256","indexed":false,"internalType":"uint256"}],"anonymous":false},{"type":"event","name":"ProposalCreated","inputs":[{"name":"proposalId","type":"uint256","indexed":true,"internalType":"uint256"},{"name":"title","type":"string","indexed":false,"internalType":"string"},{"name":"proposer","type":"address","indexed":true,"internalType":"address"},{"name":"category","type":"uint8","indexed":false,"internalType":"uint8"}],"anonymous":false},{"type":"event","name":"ProposalExecuted","inputs":[{"name":"proposalId","type":"uint256","indexed":true,"internalType":"uint256"},{"name":"timestamp","type":"uint256","indexed":false,"internalType":"uint256"}],"anonymous":false},{"type":"event","name":"VoteCast","inputs":[{"name":"proposalId","type":"uint256","indexed":true,"internalType":"uint256"},{"name":"agent","type":"address","indexed":true,"internalType":"address"},{"name":"voteType","type":"uint8","indexed":false,"internalType":"enum PincerGov.VoteType"},{"name":"timestamp","type":"uint256","indexed":false,"internalType":"uint256"}],"anonymous":false}],"bytecode":{"object":"0x6080604052348015600e575f5ffd5b50604051612037380380612037833981016040819052602b916069565b60038054336001600160a01b031991821617909155600280549091166001600160a01b03929092169190911790555f805460ff191660011790556094565b5f602082840312156078575f5ffd5b81516001600160a01b0381168114608d575f5ffd5b9392505050565b611f96806100a15f395ff3fe608060405234801561000f575f5ffd5b506004361061011c575f3560e01c80638680852e116100a9578063c7f758a81161006e578063c7f758a81461027d578063cb832d871461029d578063d23254b4146102b0578063da35c664146102d2578063f851a440146102db575f5ffd5b80638680852e146102485780639990b2c51461025b5780639ebb8cc714610263578063a3a40ea51461026b578063bca125f014610275575f5ffd5b80633162cfa4116100ef5780633162cfa4146101a757806343859632146101d2578063470b76221461020f5780635652077c146102225780636687d63d14610235575f5ffd5b8063013cf08b14610120578063055ad42e146101535780630d61b5191461017157806310a4d5b314610186575b5f5ffd5b61013361012e3660046117b4565b6102ee565b60405161014a9b9a99989796959493929190611821565b60405180910390f35b5f5461015f9060ff1681565b60405160ff909116815260200161014a565b61018461017f3660046117b4565b610461565b005b6101996101943660046117b4565b610578565b60405190815260200161014a565b6002546101ba906001600160a01b031681565b6040516001600160a01b03909116815260200161014a565b6101ff6101e03660046118c4565b600660209081525f928352604080842090915290825290205460ff1681565b604051901515815260200161014a565b61018461021d366004611941565b6105e0565b6101846102303660046117b4565b6109b4565b610199610243366004611997565b610ab0565b610184610256366004611a68565b610d6d565b6101846111db565b6101846112d6565b5f5460ff1661015f565b61015f604381565b61029061028b3660046117b4565b611352565b60405161014a9190611b07565b6101846102ab366004611bce565b61152e565b6102c36102be3660046118c4565b61157a565b60405161014a93929190611bfe565b61019960015481565b6003546101ba906001600160a01b031681565b60046020525f90815260409020805460018201805491929161030f90611c2c565b80601f016020809104026020016040519081016040528092919081815260200182805461033b90611c2c565b80156103865780601f1061035d57610100808354040283529160200191610386565b820191905f5260205f20905b81548152906001019060200180831161036957829003601f168201915b50505050509080600201805461039b90611c2c565b80601f01602080910402602001604051908101604052809291908181526020018280546103c790611c2c565b80156104125780601f106103e957610100808354040283529160200191610412565b820191905f5260205f20905b8154815290600101906020018083116103f557829003601f168201915b50505050600383015460048401546005850154600686015460078701546008880154600990980154969760ff808716986101009097046001600160a01b0316975094959394909216929091908b565b805f8111801561047357506001548111155b6104985760405162461bcd60e51b815260040161048f90611c64565b60405180910390fd5b6003546001600160a01b031633146104c25760405162461bcd60e51b815260040161048f90611c9b565b5f8281526004602052604090206002600682015460ff1660048111156104ea576104ea6117f9565b1461052f5760405162461bcd60e51b8152602060048201526015602482015274141a5b98d95c91dbdd8e881b9bdd081c185cdcd959605a1b604482015260640161048f565b60068101805460ff1916600417905560405142815283907ff758fc91e01b00ea6b4a6138756f7f28e021f9bf21db6dbf8c36c88eb737257a9060200160405180910390a2505050565b5f8181526004602052604081206009810154600882015460078301548492916105a091611cdd565b6105aa9190611cdd565b9050805f036105bc57505f9392505050565b80826007015460646105ce9190611cf6565b6105d89190611d0d565b949350505050565b835f811180156105f257506001548111155b61060e5760405162461bcd60e51b815260040161048f90611c64565b6002546001600160a01b0316158061068b575060025460405163710d9c6960e11b81523360048201526001600160a01b039091169063e21b38d290602401602060405180830381865afa158015610667573d5f5f3e3d5ffd5b505050506040513d601f19601f8201168201806040525081019061068b9190611d2c565b6106d75760405162461bcd60e51b815260206004820152601f60248201527f50696e636572476f763a206e6f742072656769737465726564206167656e7400604482015260640161048f565b5f8581526004602052604090206001600682015460ff1660048111156106ff576106ff6117f9565b146107445760405162461bcd60e51b815260206004820152601560248201527450696e636572476f763a206e6f742061637469766560581b604482015260640161048f565b80600501544211156107985760405162461bcd60e51b815260206004820152601760248201527f50696e636572476f763a20766f74696e6720656e646564000000000000000000604482015260640161048f565b5f86815260066020908152604080832033845290915290205460ff16156108015760405162461bcd60e51b815260206004820152601860248201527f50696e636572476f763a20616c726561647920766f7465640000000000000000604482015260640161048f565b5f86815260066020908152604080832033845290915290819020805460ff1916600117905580516060810190915280866002811115610842576108426117f9565b815260200142815260200185858080601f0160208091040260200160405190810160405280939291908181526020018383808284375f92018290525093909452505088815260056020908152604080832033845290915290208251815491925090829060ff191660018360028111156108bd576108bd6117f9565b021790555060208201516001820155604082015160028201906108e09082611daa565b50600191506108ec9050565b8560028111156108fe576108fe6117f9565b0361091e57600781018054905f61091483611e65565b919050555061095f565b6002856002811115610932576109326117f9565b0361094857600881018054905f61091483611e65565b600981018054905f61095983611e65565b91905055505b336001600160a01b0316867fb83d25c6a5d258561330739951487acb4bd09ba5190b5d32c4f261817d906792874260405161099b929190611e7d565b60405180910390a36109ac86611631565b505050505050565b805f811180156109c657506001548111155b6109e25760405162461bcd60e51b815260040161048f90611c64565b5f8281526004602052604090206001600682015460ff166004811115610a0a57610a0a6117f9565b14610a4f5760405162461bcd60e51b815260206004820152601560248201527450696e636572476f763a206e6f742061637469766560581b604482015260640161048f565b80600501544211610aa25760405162461bcd60e51b815260206004820152601b60248201527f50696e636572476f763a20766f74696e67206e6f7420656e6465640000000000604482015260640161048f565b610aab83611631565b505050565b5f60028360ff161115610b055760405162461bcd60e51b815260206004820152601b60248201527f50696e636572476f763a20696e76616c69642063617465676f72790000000000604482015260640161048f565b610e10821015610b575760405162461bcd60e51b815260206004820152601b60248201527f50696e636572476f763a20766f74696e6720746f6f2073686f72740000000000604482015260640161048f565b60018054905f610b6683611e65565b9190505550604051806101600160405280600154815260200188888080601f0160208091040260200160405190810160405280939291908181526020018383808284375f92019190915250505090825250604080516020601f8901819004810282018101909252878152918101919088908890819084018382808284375f9201919091525050509082525060ff851660208201523360408201524260608201819052608090910190610c19908590611cdd565b8152602001600181525f602080830182905260408084018390526060909301829052600180548352600482529290912083518155908301519091820190610c609082611daa565b5060408201516002820190610c759082611daa565b50606082015160038201805460808501516001600160a01b0316610100026001600160a81b031990911660ff9093169290921791909117905560a082015160048083019190915560c0830151600583015560e08301516006830180549192909160ff1916906001908490811115610cee57610cee6117f9565b0217905550610100820151816007015561012082015181600801556101408201518160090155905050336001600160a01b03166001547f688952e5214e03e39991dc03b36de90478430f3b8545e9629b7e19b325f5ceb2898987604051610d5793929190611e98565b60405180910390a3506001549695505050505050565b6002546001600160a01b03161580610dea575060025460405163710d9c6960e11b81523360048201526001600160a01b039091169063e21b38d290602401602060405180830381865afa158015610dc6573d5f5f3e3d5ffd5b505050506040513d601f19601f82011682018060405250810190610dea9190611d2c565b610e365760405162461bcd60e51b815260206004820152601f60248201527f50696e636572476f763a206e6f742072656769737465726564206167656e7400604482015260640161048f565b848314610e855760405162461bcd60e51b815260206004820152601a60248201527f50696e636572476f763a206c656e677468206d69736d61746368000000000000604482015260640161048f565b848114610ed45760405162461bcd60e51b815260206004820152601a60248201527f50696e636572476f763a206c656e677468206d69736d61746368000000000000604482015260640161048f565b5f5b858110156111d2575f878783818110610ef157610ef1611ed2565b9050602002013590505f81118015610f0b57506001548111155b156111c9575f8181526004602052604090206001600682015460ff166004811115610f3857610f386117f9565b148015610f49575080600501544211155b8015610f6e57505f82815260066020908152604080832033845290915290205460ff16155b156111c7575f82815260066020908152604080832033845290915290819020805460ff1916600117905580516060810190915280888886818110610fb457610fb4611ed2565b9050602002016020810190610fc99190611ee6565b6002811115610fda57610fda6117f9565b8152602001428152602001868686818110610ff757610ff7611ed2565b90506020028101906110099190611eff565b8080601f0160208091040260200160405190810160405280939291908181526020018383808284375f92018290525093909452505084815260056020908152604080832033845290915290208251815491925090829060ff19166001836002811115611077576110776117f9565b0217905550602082015160018201556040820151600282019061109a9082611daa565b50600191506110a69050565b8787858181106110b8576110b8611ed2565b90506020020160208101906110cd9190611ee6565b60028111156110de576110de6117f9565b036110fe57600781018054905f6110f483611e65565b9190505550611165565b600287878581811061111257611112611ed2565b90506020020160208101906111279190611ee6565b6002811115611138576111386117f9565b0361114e57600881018054905f6110f483611e65565b600981018054905f61115f83611e65565b91905055505b33827fb83d25c6a5d258561330739951487acb4bd09ba5190b5d32c4f261817d90679289898781811061119a5761119a611ed2565b90506020020160208101906111af9190611ee6565b426040516111be929190611e7d565b60405180910390a35b505b50600101610ed6565b50505050505050565b6003546001600160a01b031633146112055760405162461bcd60e51b815260040161048f90611c9b565b5f54600560ff9091161061125b5760405162461bcd60e51b815260206004820152601c60248201527f50696e636572476f763a206d6178207068617365207265616368656400000000604482015260640161048f565b5f805460ff169081908061126e83611f42565b82546101009290920a60ff8181021990931691831602179091555f5460408051858416815291909216602082015242918101919091527fb069e7623d20ca58d2acba19faeaba01de4b134c8dacf824b053bce801c9105c91506060015b60405180910390a150565b6003546001600160a01b031633146113005760405162461bcd60e51b815260040161048f90611c9b565b5f8054600160ff19821681179092556040805160ff909216808352602083019390935242908201527fb069e7623d20ca58d2acba19faeaba01de4b134c8dacf824b053bce801c9105c906060016112cb565b61135a611746565b60045f8381526020019081526020015f20604051806101600160405290815f820154815260200160018201805461139090611c2c565b80601f01602080910402602001604051908101604052809291908181526020018280546113bc90611c2c565b80156114075780601f106113de57610100808354040283529160200191611407565b820191905f5260205f20905b8154815290600101906020018083116113ea57829003601f168201915b5050505050815260200160028201805461142090611c2c565b80601f016020809104026020016040519081016040528092919081815260200182805461144c90611c2c565b80156114975780601f1061146e57610100808354040283529160200191611497565b820191905f5260205f20905b81548152906001019060200180831161147a57829003601f168201915b5050509183525050600382015460ff80821660208401526101009091046001600160a01b03166040830152600480840154606084015260058401546080840152600684015460a090930192909116908111156114f5576114f56117f9565b6004811115611506576115066117f9565b8152600782015460208201526008820154604082015260099091015460609091015292915050565b6003546001600160a01b031633146115585760405162461bcd60e51b815260040161048f90611c9b565b600280546001600160a01b0319166001600160a01b0392909216919091179055565b600560209081525f928352604080842090915290825290208054600182015460028301805460ff9093169391926115b090611c2c565b80601f01602080910402602001604051908101604052809291908181526020018280546115dc90611c2c565b80156116275780601f106115fe57610100808354040283529160200191611627565b820191905f5260205f20905b81548152906001019060200180831161160a57829003601f168201915b5050505050905083565b5f81815260046020526040812060098101546008820154600783015492939261165a9190611cdd565b6116649190611cdd565b9050805f0361167257505050565b5f81836007015460646116859190611cf6565b61168f9190611d0d565b9050604381106116e95760068301805460ff1916600217905560408051600181526020810183905285917f757be2aafd9f000afdf4e2be81767038087d0c31af32f7d8424ede9bbae19970910160405180910390a2611740565b82600501544211156117405760068301805460ff19166003179055604080515f81526020810183905285917f757be2aafd9f000afdf4e2be81767038087d0c31af32f7d8424ede9bbae19970910160405180910390a25b50505050565b6040518061016001604052805f815260200160608152602001606081526020015f60ff1681526020015f6001600160a01b031681526020015f81526020015f81526020015f600481111561179c5761179c6117f9565b81526020015f81526020015f81526020015f81525090565b5f602082840312156117c4575f5ffd5b5035919050565b5f81518084528060208401602086015e5f602082860101526020601f19601f83011685010191505092915050565b634e487b7160e01b5f52602160045260245ffd5b6005811061181d5761181d6117f9565b9052565b8b815261016060208201525f61183b61016083018d6117cb565b828103604084015261184d818d6117cb565b60ff8c1660608501526001600160a01b038b16608085015260a084018a905260c084018990529150611884905060e083018761180d565b8461010083015283610120830152826101408301529c9b505050505050505050505050565b80356001600160a01b03811681146118bf575f5ffd5b919050565b5f5f604083850312156118d5575f5ffd5b823591506118e5602084016118a9565b90509250929050565b8035600381106118bf575f5ffd5b5f5f83601f84011261190c575f5ffd5b50813567ffffffffffffffff811115611923575f5ffd5b60208301915083602082850101111561193a575f5ffd5b9250929050565b5f5f5f5f60608587031215611954575f5ffd5b84359350611964602086016118ee565b9250604085013567ffffffffffffffff81111561197f575f5ffd5b61198b878288016118fc565b95989497509550505050565b5f5f5f5f5f5f608087890312156119ac575f5ffd5b863567ffffffffffffffff8111156119c2575f5ffd5b6119ce89828a016118fc565b909750955050602087013567ffffffffffffffff8111156119ed575f5ffd5b6119f989828a016118fc565b909550935050604087013560ff81168114611a12575f5ffd5b95989497509295919493606090920135925050565b5f5f83601f840112611a37575f5ffd5b50813567ffffffffffffffff811115611a4e575f5ffd5b6020830191508360208260051b850101111561193a575f5ffd5b5f5f5f5f5f5f60608789031215611a7d575f5ffd5b863567ffffffffffffffff811115611a93575f5ffd5b611a9f89828a01611a27565b909750955050602087013567ffffffffffffffff811115611abe575f5ffd5b611aca89828a01611a27565b909550935050604087013567ffffffffffffffff811115611ae9575f5ffd5b611af589828a01611a27565b979a9699509497509295939492505050565b60208152815160208201525f60208301516101606040840152611b2e6101808401826117cb565b90506040840151601f19848303016060850152611b4b82826117cb565b9150506060840151611b62608085018260ff169052565b5060808401516001600160a01b03811660a08501525060a084015160c084015260c084015160e084015260e0840151611b9f61010085018261180d565b506101008401516101208401526101208401516101408401526101408401516101608401528091505092915050565b5f60208284031215611bde575f5ffd5b611be7826118a9565b9392505050565b6003811061181d5761181d6117f9565b611c088185611bee565b826020820152606060408201525f611c2360608301846117cb565b95945050505050565b600181811c90821680611c4057607f821691505b602082108103611c5e57634e487b7160e01b5f52602260045260245ffd5b50919050565b6020808252601b908201527f50696e636572476f763a20696e76616c69642070726f706f73616c0000000000604082015260600190565b6020808252601490820152732834b731b2b923b7bb1d103737ba1030b236b4b760611b604082015260600190565b634e487b7160e01b5f52601160045260245ffd5b80820180821115611cf057611cf0611cc9565b92915050565b8082028115828204841417611cf057611cf0611cc9565b5f82611d2757634e487b7160e01b5f52601260045260245ffd5b500490565b5f60208284031215611d3c575f5ffd5b81518015158114611be7575f5ffd5b634e487b7160e01b5f52604160045260245ffd5b601f821115610aab57805f5260205f20601f840160051c81016020851015611d845750805b601f840160051c820191505b81811015611da3575f8155600101611d90565b5050505050565b815167ffffffffffffffff811115611dc457611dc4611d4b565b611dd881611dd28454611c2c565b84611d5f565b6020601f821160018114611e0a575f8315611df35750848201515b5f19600385901b1c1916600184901b178455611da3565b5f84815260208120601f198516915b82811015611e395787850151825560209485019460019092019101611e19565b5084821015611e5657868401515f19600387901b60f8161c191681555b50505050600190811b01905550565b5f60018201611e7657611e76611cc9565b5060010190565b60408101611e8b8285611bee565b8260208301529392505050565b60408152826040820152828460608301375f606084830101525f6060601f19601f860116830101905060ff83166020830152949350505050565b634e487b7160e01b5f52603260045260245ffd5b5f60208284031215611ef6575f5ffd5b611be7826118ee565b5f5f8335601e19843603018112611f14575f5ffd5b83018035915067ffffffffffffffff821115611f2e575f5ffd5b60200191503681900382131561193a575f5ffd5b5f60ff821660ff8103611f5757611f57611cc9565b6001019291505056fea2646970667358221220881a619032d548aec3e8ecb6727c86b06988485a80172b70ec188140854ed84764736f6c634300081c0033","linkReferences":{}},"methodIdentifiers":{"CONSENSUS_THRESHOLD()":"bca125f0","admin()":"f851a440","advanceMoltPhase()":"9990b2c5","batchCastVotes(uint256[],uint8[],string[])":"8680852e","castVote(uint256,uint8,string)":"470b7622","createProposal(string,string,uint8,uint256)":"6687d63d","currentPhase()":"055ad42e","executeProposal(uint256)":"0d61b519","finalizeProposal(uint256)":"5652077c","getApprovalRate(uint256)":"10a4d5b3","getCurrentPhase()":"a3a40ea5","getProposal(uint256)":"c7f758a8","hasVoted(uint256,address)":"43859632","moltRegistry()":"3162cfa4","proposalCount()":"da35c664","proposals(uint256)":"013cf08b","resetMoltPhase()":"9ebb8cc7","setMoltRegistry(address)":"cb832d87","votes(uint256,address)":"d23254b4"},"id":23}