{"abi":[{"type":"constructor","inputs":[],"stateMutability":"nonpayable"},{"type":"function","name":"MAX_AGENTS","inputs":[],"outputs":[{"name":"","type":"uint256","internalType":"uint256"}],"stateMutability":"view"},{"type":"function","name":"admin","inputs":[],"outputs":[{"name":"","type":"address","internalType":"address"}],"stateMutability":"view"},{"type":"function","name":"agentAddresses","inputs":[{"name":"","type":"uint256","internalType":"uint256"}],"outputs":[{"name":"","type":"address","internalType":"address"}],"stateMutability":"view"},{"type":"function","name":"agents","inputs":[{"name":"","type":"address","internalType":"address"}],"outputs":[{"name":"id","type":"uint256","internalType":"uint256"},{"name":"name","type":"string","internalType":"string"},{"name":"agentType","type":"uint8","internalType":"enum MoltRegistry.AgentType"},{"name":"status","type":"uint8","internalType":"enum MoltRegistry.AgentStatus"},{"name":"owner","type":"address","internalType":"address"},{"name":"moltbookMember","type":"bool","internalType":"bool"},{"name":"registeredAt","type":"uint256","internalType":"uint256"},{"name":"lastMoltAt","type":"uint256","internalType":"uint256"},{"name":"moltCount","type":"uint256","internalType":"uint256"},{"name":"votesCount","type":"uint256","internalType":"uint256"},{"name":"consensusHits","type":"uint256","internalType":"uint256"}],"stateMutability":"view"},{"type":"function","name":"batchRegisterAgents","inputs":[{"name":"_names","type":"string[]","internalType":"string[]"},{"name":"_types","type":"uint8[]","internalType":"enum MoltRegistry.AgentType[]"},{"name":"_owners","type":"address[]","internalType":"address[]"},{"name":"_moltbookMembers","type":"bool[]","internalType":"bool[]"}],"outputs":[],"stateMutability":"nonpayable"},{"type":"function","name":"getActiveAgents","inputs":[],"outputs":[{"name":"","type":"address[]","internalType":"address[]"}],"stateMutability":"view"},{"type":"function","name":"getAgent","inputs":[{"name":"_agentAddress","type":"address","internalType":"address"}],"outputs":[{"name":"","type":"tuple","internalType":"struct MoltRegistry.Agent","components":[{"name":"id","type":"uint256","internalType":"uint256"},{"name":"name","type":"string","internalType":"string"},{"name":"agentType","type":"uint8","internalType":"enum MoltRegistry.AgentType"},{"name":"status","type":"uint8","internalType":"enum MoltRegistry.AgentStatus"},{"name":"owner","type":"address","internalType":"address"},{"name":"moltbookMember","type":"bool","internalType":"bool"},{"name":"registeredAt","type":"uint256","internalType":"uint256"},{"name":"lastMoltAt","type":"uint256","internalType":"uint256"},{"name":"moltCount","type":"uint256","internalType":"uint256"},{"name":"votesCount","type":"uint256","internalType":"uint256"},{"name":"consensusHits","type":"uint256","internalType":"uint256"}]}],"stateMutability":"view"},{"type":"function","name":"getAgentById","inputs":[{"name":"_agentId","type":"uint256","internalType":"uint256"}],"outputs":[{"name":"","type":"tuple","internalType":"struct MoltRegistry.Agent","components":[{"name":"id","type":"uint256","internalType":"uint256"},{"name":"name","type":"string","internalType":"string"},{"name":"agentType","type":"uint8","internalType":"enum MoltRegistry.AgentType"},{"name":"status","type":"uint8","internalType":"enum MoltRegistry.AgentStatus"},{"name":"owner","type":"address","internalType":"address"},{"name":"moltbookMember","type":"bool","internalType":"bool"},{"name":"registeredAt","type":"uint256","internalType":"uint256"},{"name":"lastMoltAt","type":"uint256","internalType":"uint256"},{"name":"moltCount","type":"uint256","internalType":"uint256"},{"name":"votesCount","type":"uint256","internalType":"uint256"},{"name":"consensusHits","type":"uint256","internalType":"uint256"}]}],"stateMutability":"view"},{"type":"function","name":"getConsensusRate","inputs":[{"name":"_agentAddress","type":"address","internalType":"address"}],"outputs":[{"name":"","type":"uint256","internalType":"uint256"}],"stateMutability":"view"},{"type":"function","name":"getMoltHistory","inputs":[{"name":"_agentId","type":"uint256","internalType":"uint256"}],"outputs":[{"name":"","type":"tuple[]","internalType":"struct MoltRegistry.MoltRecord[]","components":[{"name":"agentId","type":"uint256","internalType":"uint256"},{"name":"fromPhase","type":"uint256","internalType":"uint256"},{"name":"toPhase","type":"uint256","internalType":"uint256"},{"name":"timestamp","type":"uint256","internalType":"uint256"},{"name":"reason","type":"string","internalType":"string"}]}],"stateMutability":"view"},{"type":"function","name":"getMoltbookMemberCount","inputs":[],"outputs":[{"name":"","type":"uint256","internalType":"uint256"}],"stateMutability":"view"},{"type":"function","name":"isRegisteredAgent","inputs":[{"name":"","type":"address","internalType":"address"}],"outputs":[{"name":"","type":"bool","internalType":"bool"}],"stateMutability":"view"},{"type":"function","name":"moltHistory","inputs":[{"name":"","type":"uint256","internalType":"uint256"},{"name":"","type":"uint256","internalType":"uint256"}],"outputs":[{"name":"agentId","type":"uint256","internalType":"uint256"},{"name":"fromPhase","type":"uint256","internalType":"uint256"},{"name":"toPhase","type":"uint256","internalType":"uint256"},{"name":"timestamp","type":"uint256","internalType":"uint256"},{"name":"reason","type":"string","internalType":"string"}],"stateMutability":"view"},{"type":"function","name":"nameReserved","inputs":[{"name":"","type":"string","internalType":"string"}],"outputs":[{"name":"","type":"bool","internalType":"bool"}],"stateMutability":"view"},{"type":"function","name":"pincerGov","inputs":[],"outputs":[{"name":"","type":"address","internalType":"address"}],"stateMutability":"view"},{"type":"function","name":"recordMolt","inputs":[{"name":"_agentAddress","type":"address","internalType":"address"},{"name":"_reason","type":"string","internalType":"string"}],"outputs":[],"stateMutability":"nonpayable"},{"type":"function","name":"recordVote","inputs":[{"name":"_agentAddress","type":"address","internalType":"address"},{"name":"_hitConsensus","type":"bool","internalType":"bool"}],"outputs":[],"stateMutability":"nonpayable"},{"type":"function","name":"registerAgent","inputs":[{"name":"_name","type":"string","internalType":"string"},{"name":"_agentType","type":"uint8","internalType":"enum MoltRegistry.AgentType"},{"name":"_owner","type":"address","internalType":"address"},{"name":"_moltbookMember","type":"bool","internalType":"bool"}],"outputs":[{"name":"","type":"uint256","internalType":"uint256"}],"stateMutability":"nonpayable"},{"type":"function","name":"setAgentStatus","inputs":[{"name":"_agentAddress","type":"address","internalType":"address"},{"name":"_status","type":"uint8","internalType":"enum MoltRegistry.AgentStatus"}],"outputs":[],"stateMutability":"nonpayable"},{"type":"function","name":"setMoltbookMembership","inputs":[{"name":"_agentAddress","type":"address","internalType":"address"},{"name":"_isMember","type":"bool","internalType":"bool"}],"outputs":[],"stateMutability":"nonpayable"},{"type":"function","name":"setPincerGov","inputs":[{"name":"_pincerGov","type":"address","internalType":"address"}],"outputs":[],"stateMutability":"nonpayable"},{"type":"function","name":"startMolting","inputs":[{"name":"_agentAddress","type":"address","internalType":"address"}],"outputs":[],"stateMutability":"nonpayable"},{"type":"function","name":"totalAgents","inputs":[],"outputs":[{"name":"","type":"uint256","internalType":"uint256"}],"stateMutability":"view"},{"type":"function","name":"transferAdmin","inputs":[{"name":"_newAdmin","type":"address","internalType":"address"}],"outputs":[],"stateMutability":"nonpayable"},{"type":"event","name":"AgentMolted","inputs":[{"name":"agentId","type":"uint256","indexed":true,"internalType":"uint256"},{"name":"moltCount","type":"uint256","indexed":false,"internalType":"uint256"},{"name":"timestamp","type":"uint256","indexed":false,"internalType":"uint256"}],"anonymous":false},{"type":"event","name":"AgentRegistered","inputs":[{"name":"agentId","type":"uint256","indexed":true,"internalType":"uint256"},{"name":"name","type":"string","indexed":false,"internalType":"string"},{"name":"owner","type":"address","indexed":true,"internalType":"address"},{"name":"moltbookMember","type":"bool","indexed":false,"internalType":"bool"}],"anonymous":false},{"type":"event","name":"AgentStatusChanged","inputs":[{"name":"agentId","type":"uint256","indexed":true,"internalType":"uint256"},{"name":"oldStatus","type":"uint8","indexed":false,"internalType":"enum MoltRegistry.AgentStatus"},{"name":"newStatus","type":"uint8","indexed":false,"internalType":"enum MoltRegistry.AgentStatus"}],"anonymous":false},{"type":"event","name":"MoltbookMembershipUpdated","inputs":[{"name":"agentId","type":"uint256","indexed":true,"internalType":"uint256"},{"name":"isMember","type":"bool","indexed":false,"internalType":"bool"}],"anonymous":false},{"type":"event","name":"VoteRecorded","inputs":[{"name":"agentId","type":"uint256","indexed":true,"internalType":"uint256"},{"name":"hitConsensus","type":"bool","indexed":false,"internalType":"bool"}],"anonymous":false}],"bytecode":{"object":"0x6080604052348015600e575f5ffd5b505f80546001600160a01b031916331790556127068061002d5f395ff3fe608060405234801561000f575f5ffd5b5060043610610153575f3560e01c8063a7676a63116100bf578063e21b38d211610079578063e21b38d21461031e578063f2b5295714610340578063f44c253a14610353578063f851a44014610373578063fb3551ff14610385578063fd66091e14610398575f5ffd5b8063a7676a63146102ac578063ab30be87146102d4578063ab780bf3146102dc578063acb71585146102ef578063ae6129de14610302578063c505371214610315575f5ffd5b80634dceb556116101105780634dceb5561461020a57806375829def1461022057806386b909fd146102335780638cbbb50c146102485780639222eb5a1461025b578063926c24e91461026e575f5ffd5b8063053882061461015757806305da0a3a146101805780632af90f33146101955780633d69f895146101c0578063432ab992146101e45780634aa600f7146101f7575b5f5ffd5b61016a610165366004611d45565b6103c2565b6040516101779190611d8a565b60405180910390f35b61019361018e366004611e81565b6104e6565b005b6002546101a8906001600160a01b031681565b6040516001600160a01b039091168152602001610177565b6101d36101ce366004611ecf565b6106b2565b604051610177959493929190611eef565b6101936101f2366004611f24565b610784565b610193610205366004611f3d565b61085c565b61021261093e565b604051908152602001610177565b61019361022e366004611f24565b6109ab565b61023b610a4b565b6040516101779190611f75565b610193610256366004611fcf565b610bcb565b61021261026936600461200e565b610cc7565b61029c61027c366004612092565b805160208183018101805160078252928201919093012091525460ff1681565b6040519015158152602001610177565b6101a86102ba366004611d45565b60046020525f90815260409020546001600160a01b031681565b610212603281565b6101936102ea366004612182565b6110f5565b6102126102fd366004611f24565b61170a565b610193610310366004611f24565b61175a565b61021260015481565b61029c61032c366004611f24565b60056020525f908152604090205460ff1681565b61019361034e366004611fcf565b6117a5565b610366610361366004611d45565b611871565b6040516101779190612284565b5f546101a8906001600160a01b031681565b610366610393366004611f24565b611a6d565b6103ab6103a6366004611f24565b611c00565b6040516101779b9a99989796959493929190612339565b606060065f8381526020019081526020015f20805480602002602001604051908101604052809291908181526020015f905b828210156104db578382905f5260205f2090600502016040518060a00160405290815f820154815260200160018201548152602001600282015481526020016003820154815260200160048201805461044c906123b3565b80601f0160208091040260200160405190810160405280929190818152602001828054610478906123b3565b80156104c35780601f1061049a576101008083540402835291602001916104c3565b820191905f5260205f20905b8154815290600101906020018083116104a657829003601f168201915b505050505081525050815260200190600101906103f4565b505050509050919050565b5f546001600160a01b031633146105185760405162461bcd60e51b815260040161050f906123e5565b60405180910390fd5b6001600160a01b0383165f9081526005602052604090205460ff1661054f5760405162461bcd60e51b815260040161050f9061241c565b6001600160a01b0383165f908152600360205260408120426004820155600581018054919261057d83612467565b909155505060028101805461ff00191661010017905580545f81815260066020908152604091829020825160a081019093529282526005840154908201906105c79060019061247f565b81526020018360050154815260200142815260200185858080601f0160208091040260200160405190810160405280939291908181526020018383808284375f920182905250939094525050835460018181018655948252602091829020845160059092020190815590830151938101939093555060408101516002830155606081015160038301556080810151909190600482019061066790826124e4565b505081546005830154604080519182524260208301529192507f3cf87d84da48f35b1e38b8d06980d32ec4a9630d4e2317e588fc4bb59dfac05091015b60405180910390a250505050565b6006602052815f5260405f2081815481106106cb575f80fd5b905f5260205f2090600502015f9150915050805f015490806001015490806002015490806003015490806004018054610703906123b3565b80601f016020809104026020016040519081016040528092919081815260200182805461072f906123b3565b801561077a5780601f106107515761010080835404028352916020019161077a565b820191905f5260205f20905b81548152906001019060200180831161075d57829003601f168201915b5050505050905085565b5f546001600160a01b031633146107ad5760405162461bcd60e51b815260040161050f906123e5565b6001600160a01b0381165f9081526005602052604090205460ff166107e45760405162461bcd60e51b815260040161050f9061241c565b6001600160a01b0381165f9081526003602052604090206002808201805461010080820460ff1693929161ff0019169083021790555081546040517faee32b7c15a5e7eb6c9fe661bd68a482005da78a005e52c4ef956a914fdb39469061084f90849060029061259e565b60405180910390a2505050565b5f546001600160a01b031633146108855760405162461bcd60e51b815260040161050f906123e5565b6001600160a01b0382165f9081526005602052604090205460ff166108bc5760405162461bcd60e51b815260040161050f9061241c565b6001600160a01b0382165f908152600360208190526040909120600281018054919261010080840460ff169386939261ff0019909116919084908111156109055761090561224c565b021790555081546040517faee32b7c15a5e7eb6c9fe661bd68a482005da78a005e52c4ef956a914fdb3946906106a4908490879061259e565b5f8060015b60015481116109a5575f818152600460209081526040808320546001600160a01b0316808452600390925290912060020154600160b01b900460ff1615610992578261098e81612467565b9350505b508061099d81612467565b915050610943565b50919050565b5f546001600160a01b031633146109d45760405162461bcd60e51b815260040161050f906123e5565b6001600160a01b038116610a2a5760405162461bcd60e51b815260206004820152601a60248201527f4d6f6c7452656769737472793a207a65726f2061646472657373000000000000604482015260640161050f565b5f80546001600160a01b0319166001600160a01b0392909216919091179055565b60605f60015b6001548111610acf575f818152600460205260409020546001600160a01b031660016001600160a01b0382165f90815260036020819052604090912060020154610100900460ff1690811115610aa957610aa961224c565b03610abc5782610ab881612467565b9350505b5080610ac781612467565b915050610a51565b505f816001600160401b03811115610ae957610ae961207e565b604051908082528060200260200182016040528015610b12578160200160208202803683370190505b5090505f60015b6001548111610bc2575f818152600460205260409020546001600160a01b031660016001600160a01b0382165f90815260036020819052604090912060020154610100900460ff1690811115610b7157610b7161224c565b03610baf5780848481518110610b8957610b896125b9565b6001600160a01b039092166020928302919091019091015282610bab81612467565b9350505b5080610bba81612467565b915050610b19565b50909392505050565b6002546001600160a01b03163314610c255760405162461bcd60e51b815260206004820152601b60248201527f4d6f6c7452656769737472793a206e6f742050696e636572476f760000000000604482015260640161050f565b6001600160a01b0382165f9081526005602052604090205460ff1615610cc3576001600160a01b0382165f9081526003602052604081206006810180549192610c6d83612467565b91905055508115610c8f57600781018054905f610c8983612467565b91905055505b805460405183151581527fc275b6af74d7ecb326bba4986833aaedbb16b34f9e2303ee8423e59a78b51e1b9060200161084f565b5050565b5f80546001600160a01b03163314610cf15760405162461bcd60e51b815260040161050f906123e5565b603260015410610d435760405162461bcd60e51b815260206004820152601d60248201527f4d6f6c7452656769737472793a207061726c69616d656e742066756c6c000000604482015260640161050f565b60078686604051610d559291906125cd565b9081526040519081900360200190205460ff1615610db55760405162461bcd60e51b815260206004820152601860248201527f4d6f6c7452656769737472793a206e616d652074616b656e0000000000000000604482015260640161050f565b6001600160a01b0383165f9081526005602052604090205460ff1615610e1d5760405162461bcd60e51b815260206004820181905260248201527f4d6f6c7452656769737472793a20616c72656164792072656769737465726564604482015260640161050f565b6001600160a01b038316610e735760405162461bcd60e51b815260206004820152601a60248201527f4d6f6c7452656769737472793a207a65726f2061646472657373000000000000604482015260640161050f565b60018054905f610e8283612467565b91905055505f604051806101600160405280600154815260200188888080601f0160208091040260200160405190810160405280939291908181526020018383808284375f92019190915250505090825250602001866002811115610ee957610ee961224c565b8152602001600181526001600160a01b03861660208083018290528615156040808501919091524260608501525f6080850181905260a0850181905260c0850181905260e0909401849052918352600381529120825181559082015191925082916001820190610f5990826124e4565b506040820151816002015f6101000a81548160ff02191690836002811115610f8357610f8361224c565b0217905550606082015160028201805461ff001916610100836003811115610fad57610fad61224c565b0217905550608082015160028201805460a08501511515600160b01b0260ff60b01b196001600160a01b0394851662010000021662010000600160b81b03199092169190911717905560c0830151600383015560e0830151600480840191909155610100840151600580850191909155610120850151600685015561014090940151600793840155600180545f908152602092835260408082208054958c166001600160a01b0319909616861790559381529490915292819020805460ff1916841790555161107f908a908a906125cd565b908152604051908190036020018120805492151560ff19909316929092179091556001546001600160a01b038616917f155d6bb46dc5ad4bcf1d0a38bb0e32a3a9b763633829cd1018c2462a925e0ab1906110df908b908b9089906125dc565b60405180910390a3505060015495945050505050565b5f546001600160a01b0316331461111e5760405162461bcd60e51b815260040161050f906123e5565b868514801561112c57508683145b801561113757508681145b6111835760405162461bcd60e51b815260206004820152601d60248201527f4d6f6c7452656769737472793a206c656e677468206d69736d61746368000000604482015260640161050f565b600154603290611194908990612613565b11156111e25760405162461bcd60e51b815260206004820152601e60248201527f4d6f6c7452656769737472793a20776f756c6420657863656564206d61780000604482015260640161050f565b5f5b878110156116ff576007898983818110611200576112006125b9565b90506020028101906112129190612626565b6040516112209291906125cd565b9081526040519081900360200190205460ff16158015611283575060055f868684818110611250576112506125b9565b90506020020160208101906112659190611f24565b6001600160a01b0316815260208101919091526040015f205460ff16155b80156112be57505f85858381811061129d5761129d6125b9565b90506020020160208101906112b29190611f24565b6001600160a01b031614155b156116f75760018054905f6112d283612467565b91905055505f60405180610160016040528060015481526020018b8b858181106112fe576112fe6125b9565b90506020028101906113109190612626565b8080601f0160208091040260200160405190810160405280939291908181526020018383808284375f9201919091525050509082525060200189898581811061135b5761135b6125b9565b90506020020160208101906113709190612668565b60028111156113815761138161224c565b81526020016001815260200187878581811061139f5761139f6125b9565b90506020020160208101906113b49190611f24565b6001600160a01b031681526020018585858181106113d4576113d46125b9565b90506020020160208101906113e99190612681565b151581526020014281526020015f81526020015f81526020015f81526020015f81525090508060035f888886818110611424576114246125b9565b90506020020160208101906114399190611f24565b6001600160a01b031681526020808201929092526040015f208251815590820151600182019061146990826124e4565b506040820151816002015f6101000a81548160ff021916908360028111156114935761149361224c565b0217905550606082015160028201805461ff0019166101008360038111156114bd576114bd61224c565b0217905550608082015160028201805460a08501511515600160b01b0260ff60b01b196001600160a01b0390941662010000029390931662010000600160b81b03199091161791909117905560c0820151600382015560e082015160048201556101008201516005820155610120820151600682015561014090910151600790910155858583818110611552576115526125b9565b90506020020160208101906115679190611f24565b600180545f90815260046020526040812080546001600160a01b0319166001600160a01b039490941693909317909255906005908888868181106115ad576115ad6125b9565b90506020020160208101906115c29190611f24565b6001600160a01b0316815260208101919091526040015f20805460ff1916911515919091179055600160078b8b858181106115ff576115ff6125b9565b90506020028101906116119190612626565b60405161161f9291906125cd565b908152604051908190036020019020805491151560ff19909216919091179055858583818110611651576116516125b9565b90506020020160208101906116669190611f24565b6001600160a01b03166001547f155d6bb46dc5ad4bcf1d0a38bb0e32a3a9b763633829cd1018c2462a925e0ab18c8c868181106116a5576116a56125b9565b90506020028101906116b79190612626565b8888888181106116c9576116c96125b9565b90506020020160208101906116de9190612681565b6040516116ed939291906125dc565b60405180910390a3505b6001016111e4565b505050505050505050565b6001600160a01b0381165f9081526003602052604081206006810154820361173457505f92915050565b6006810154600782015461174990606461269a565b61175391906126b1565b9392505050565b5f546001600160a01b031633146117835760405162461bcd60e51b815260040161050f906123e5565b600280546001600160a01b0319166001600160a01b0392909216919091179055565b5f546001600160a01b031633146117ce5760405162461bcd60e51b815260040161050f906123e5565b6001600160a01b0382165f9081526005602052604090205460ff166118055760405162461bcd60e51b815260040161050f9061241c565b6001600160a01b0382165f9081526003602052604090819020600281018054841515600160b01b0260ff60b01b19909116179055805491519091907fd16fa0c3df72896efc65b0125bad3b98f7c76edf00eb80dc7c64e1005ba7f3ed9061084f90851515815260200190565b611879611ce9565b815f8111801561188b57506001548111155b6118d75760405162461bcd60e51b815260206004820152601b60248201527f4d6f6c7452656769737472793a20696e76616c6964206167656e740000000000604482015260640161050f565b5f838152600460209081526040808320546001600160a01b0316835260038252918290208251610160810190935280548352600181018054919284019161191d906123b3565b80601f0160208091040260200160405190810160405280929190818152602001828054611949906123b3565b80156119945780601f1061196b57610100808354040283529160200191611994565b820191905f5260205f20905b81548152906001019060200180831161197757829003601f168201915b505050918352505060028281015460209092019160ff16908111156119bb576119bb61224c565b60028111156119cc576119cc61224c565b81526020016002820160019054906101000a900460ff1660038111156119f4576119f461224c565b6003811115611a0557611a0561224c565b815260028201546201000081046001600160a01b03166020830152600160b01b900460ff16151560408201526003820154606082015260048201546080820152600582015460a0820152600682015460c082015260079091015460e090910152915050919050565b611a75611ce9565b6001600160a01b0382165f9081526003602090815260409182902082516101608101909352805483526001810180549192840191611ab2906123b3565b80601f0160208091040260200160405190810160405280929190818152602001828054611ade906123b3565b8015611b295780601f10611b0057610100808354040283529160200191611b29565b820191905f5260205f20905b815481529060010190602001808311611b0c57829003601f168201915b505050918352505060028281015460209092019160ff1690811115611b5057611b5061224c565b6002811115611b6157611b6161224c565b81526020016002820160019054906101000a900460ff166003811115611b8957611b8961224c565b6003811115611b9a57611b9a61224c565b815260028201546201000081046001600160a01b03166020830152600160b01b900460ff16151560408201526003820154606082015260048201546080820152600582015460a0820152600682015460c082015260079091015460e09091015292915050565b60036020525f908152604090208054600182018054919291611c21906123b3565b80601f0160208091040260200160405190810160405280929190818152602001828054611c4d906123b3565b8015611c985780601f10611c6f57610100808354040283529160200191611c98565b820191905f5260205f20905b815481529060010190602001808311611c7b57829003601f168201915b50505060028401546003850154600486015460058701546006880154600790980154969760ff808616986101008704821698506001600160a01b03620100008804169750600160b01b90960416948b565b60408051610160810182525f80825260606020830152909182019081526020015f81526020015f6001600160a01b031681526020015f151581526020015f81526020015f81526020015f81526020015f81526020015f81525090565b5f60208284031215611d55575f5ffd5b5035919050565b5f81518084528060208401602086015e5f602082860101526020601f19601f83011685010191505092915050565b5f602082016020835280845180835260408501915060408160051b8601019250602086015f5b82811015611e1657603f198786030184528151805186526020810151602087015260408101516040870152606081015160608701526080810151905060a06080870152611e0060a0870182611d5c565b9550506020938401939190910190600101611db0565b50929695505050505050565b80356001600160a01b0381168114611e38575f5ffd5b919050565b5f5f83601f840112611e4d575f5ffd5b5081356001600160401b03811115611e63575f5ffd5b602083019150836020828501011115611e7a575f5ffd5b9250929050565b5f5f5f60408486031215611e93575f5ffd5b611e9c84611e22565b925060208401356001600160401b03811115611eb6575f5ffd5b611ec286828701611e3d565b9497909650939450505050565b5f5f60408385031215611ee0575f5ffd5b50508035926020909101359150565b85815284602082015283604082015282606082015260a060808201525f611f1960a0830184611d5c565b979650505050505050565b5f60208284031215611f34575f5ffd5b61175382611e22565b5f5f60408385031215611f4e575f5ffd5b611f5783611e22565b9150602083013560048110611f6a575f5ffd5b809150509250929050565b602080825282518282018190525f918401906040840190835b81811015611fb55783516001600160a01b0316835260209384019390920191600101611f8e565b509095945050505050565b80358015158114611e38575f5ffd5b5f5f60408385031215611fe0575f5ffd5b611fe983611e22565b9150611ff760208401611fc0565b90509250929050565b803560038110611e38575f5ffd5b5f5f5f5f5f60808688031215612022575f5ffd5b85356001600160401b03811115612037575f5ffd5b61204388828901611e3d565b9096509450612056905060208701612000565b925061206460408701611e22565b915061207260608701611fc0565b90509295509295909350565b634e487b7160e01b5f52604160045260245ffd5b5f602082840312156120a2575f5ffd5b81356001600160401b038111156120b7575f5ffd5b8201601f810184136120c7575f5ffd5b80356001600160401b038111156120e0576120e061207e565b604051601f8201601f19908116603f011681016001600160401b038111828210171561210e5761210e61207e565b604052818152828201602001861015612125575f5ffd5b816020840160208301375f91810160200191909152949350505050565b5f5f83601f840112612152575f5ffd5b5081356001600160401b03811115612168575f5ffd5b6020830191508360208260051b8501011115611e7a575f5ffd5b5f5f5f5f5f5f5f5f6080898b031215612199575f5ffd5b88356001600160401b038111156121ae575f5ffd5b6121ba8b828c01612142565b90995097505060208901356001600160401b038111156121d8575f5ffd5b6121e48b828c01612142565b90975095505060408901356001600160401b03811115612202575f5ffd5b61220e8b828c01612142565b90955093505060608901356001600160401b0381111561222c575f5ffd5b6122388b828c01612142565b999c989b5096995094979396929594505050565b634e487b7160e01b5f52602160045260245ffd5b600381106122705761227061224c565b9052565b600481106122705761227061224c565b60208152815160208201525f602083015161016060408401526122ab610180840182611d5c565b905060408401516122bf6060850182612260565b5060608401516122d26080850182612274565b5060808401516001600160a01b03811660a08501525060a084015180151560c08501525060c084015160e084015260e08401516101008401526101008401516101208401526101208401516101408401526101408401516101608401528091505092915050565b8b815261016060208201525f61235361016083018d611d5c565b9050612362604083018c612260565b61236f606083018b612274565b6001600160a01b0398909816608082015295151560a087015260c086019490945260e085019290925261010084015261012083015261014090910152949350505050565b600181811c908216806123c757607f821691505b6020821081036109a557634e487b7160e01b5f52602260045260245ffd5b60208082526017908201527f4d6f6c7452656769737472793a206e6f742061646d696e000000000000000000604082015260600190565b6020808252601c908201527f4d6f6c7452656769737472793a206e6f74207265676973746572656400000000604082015260600190565b634e487b7160e01b5f52601160045260245ffd5b5f6001820161247857612478612453565b5060010190565b8181038181111561249257612492612453565b92915050565b601f8211156124df57805f5260205f20601f840160051c810160208510156124bd5750805b601f840160051c820191505b818110156124dc575f81556001016124c9565b50505b505050565b81516001600160401b038111156124fd576124fd61207e565b6125118161250b84546123b3565b84612498565b6020601f821160018114612543575f831561252c5750848201515b5f19600385901b1c1916600184901b1784556124dc565b5f84815260208120601f198516915b828110156125725787850151825560209485019460019092019101612552565b508482101561258f57868401515f19600387901b60f8161c191681555b50505050600190811b01905550565b604081016125ac8285612274565b6117536020830184612274565b634e487b7160e01b5f52603260045260245ffd5b818382375f9101908152919050565b60408152826040820152828460608301375f60608483018101919091529115156020820152601f909201601f191690910101919050565b8082018082111561249257612492612453565b5f5f8335601e1984360301811261263b575f5ffd5b8301803591506001600160401b03821115612654575f5ffd5b602001915036819003821315611e7a575f5ffd5b5f60208284031215612678575f5ffd5b61175382612000565b5f60208284031215612691575f5ffd5b61175382611fc0565b808202811582820484141761249257612492612453565b5f826126cb57634e487b7160e01b5f52601260045260245ffd5b50049056fea2646970667358221220dfd9660f70c72bfaa1abb69cb24423ec1937779242015f02170853297445ec9764736f6c634300081c0033","linkReferences":{}},"methodIdentifiers":{"MAX_AGENTS()":"ab30be87","admin()":"f851a440","agentAddresses(uint256)":"a7676a63","agents(address)":"fd66091e","batchRegisterAgents(string[],uint8[],address[],bool[])":"ab780bf3","getActiveAgents()":"86b909fd","getAgent(address)":"fb3551ff","getAgentById(uint256)":"f44c253a","getConsensusRate(address)":"acb71585","getMoltHistory(uint256)":"05388206","getMoltbookMemberCount()":"4dceb556","isRegisteredAgent(address)":"e21b38d2","moltHistory(uint256,uint256)":"3d69f895","nameReserved(string)":"926c24e9","pincerGov()":"2af90f33","recordMolt(address,string)":"05da0a3a","recordVote(address,bool)":"8cbbb50c","registerAgent(string,uint8,address,bool)":"9222eb5a","setAgentStatus(address,uint8)":"4aa600f7","setMoltbookMembership(address,bool)":"f2b52957","setPincerGov(address)":"ae6129de","startMolting(address)":"432ab992","totalAgents()":"c5053712","transferAdmin(address)":"75829def"},"id":22}